{
  "_format": "hh-sol-artifact-1",
  "contractName": "AuroraERC721",
  "sourceName": "contracts/AuroraERC721.sol",
  "abi": [
    {
      "inputs": [
        {
          "internalType": "string",
          "name": "name",
          "type": "string"
        },
        {
          "internalType": "string",
          "name": "symbol",
          "type": "string"
        }
      ],
      "stateMutability": "nonpayable",
      "type": "constructor"
    },
    {
      "anonymous": false,
      "inputs": [
        {
          "indexed": true,
          "internalType": "address",
          "name": "owner",
          "type": "address"
        },
        {
          "indexed": true,
          "internalType": "address",
          "name": "approved",
          "type": "address"
        },
        {
          "indexed": true,
          "internalType": "uint256",
          "name": "tokenId",
          "type": "uint256"
        }
      ],
      "name": "Approval",
      "type": "event"
    },
    {
      "anonymous": false,
      "inputs": [
        {
          "indexed": true,
          "internalType": "address",
          "name": "owner",
          "type": "address"
        },
        {
          "indexed": true,
          "internalType": "address",
          "name": "operator",
          "type": "address"
        },
        {
          "indexed": false,
          "internalType": "bool",
          "name": "approved",
          "type": "bool"
        }
      ],
      "name": "ApprovalForAll",
      "type": "event"
    },
    {
      "anonymous": false,
      "inputs": [
        {
          "indexed": true,
          "internalType": "address",
          "name": "from",
          "type": "address"
        },
        {
          "indexed": true,
          "internalType": "address",
          "name": "to",
          "type": "address"
        },
        {
          "indexed": true,
          "internalType": "uint256",
          "name": "tokenId",
          "type": "uint256"
        }
      ],
      "name": "Transfer",
      "type": "event"
    },
    {
      "inputs": [
        {
          "internalType": "uint256",
          "name": "eventId",
          "type": "uint256"
        },
        {
          "internalType": "string",
          "name": "_eventURI",
          "type": "string"
        }
      ],
      "name": "_setEventURI",
      "outputs": [],
      "stateMutability": "nonpayable",
      "type": "function"
    },
    {
      "inputs": [
        {
          "internalType": "uint256",
          "name": "TokenId",
          "type": "uint256"
        },
        {
          "internalType": "uint256",
          "name": "EventId",
          "type": "uint256"
        },
        {
          "internalType": "string",
          "name": "_tokenURI",
          "type": "string"
        }
      ],
      "name": "_setTokenEvent",
      "outputs": [],
      "stateMutability": "nonpayable",
      "type": "function"
    },
    {
      "inputs": [
        {
          "internalType": "address",
          "name": "to",
          "type": "address"
        },
        {
          "internalType": "uint256",
          "name": "tokenId",
          "type": "uint256"
        }
      ],
      "name": "approve",
      "outputs": [],
      "stateMutability": "nonpayable",
      "type": "function"
    },
    {
      "inputs": [
        {
          "internalType": "address",
          "name": "owner",
          "type": "address"
        }
      ],
      "name": "balanceOf",
      "outputs": [
        {
          "internalType": "uint256",
          "name": "",
          "type": "uint256"
        }
      ],
      "stateMutability": "view",
      "type": "function"
    },
    {
      "inputs": [
        {
          "internalType": "address",
          "name": "_claimer",
          "type": "address"
        },
        {
          "internalType": "uint256",
          "name": "eventId",
          "type": "uint256"
        },
        {
          "internalType": "uint256",
          "name": "tokentId",
          "type": "uint256"
        },
        {
          "internalType": "string",
          "name": "_tokenURI",
          "type": "string"
        }
      ],
      "name": "claimToken",
      "outputs": [
        {
          "internalType": "uint256",
          "name": "",
          "type": "uint256"
        }
      ],
      "stateMutability": "nonpayable",
      "type": "function"
    },
    {
      "inputs": [
        {
          "internalType": "uint256",
          "name": "tokenId",
          "type": "uint256"
        },
        {
          "internalType": "string",
          "name": "_bidURI",
          "type": "string"
        }
      ],
      "name": "createBid",
      "outputs": [
        {
          "internalType": "uint256",
          "name": "",
          "type": "uint256"
        }
      ],
      "stateMutability": "nonpayable",
      "type": "function"
    },
    {
      "inputs": [
        {
          "internalType": "string",
          "name": "_eventURI",
          "type": "string"
        }
      ],
      "name": "createEvent",
      "outputs": [
        {
          "internalType": "uint256",
          "name": "",
          "type": "uint256"
        }
      ],
      "stateMutability": "nonpayable",
      "type": "function"
    },
    {
      "inputs": [
        {
          "internalType": "uint256",
          "name": "eventId",
          "type": "uint256"
        }
      ],
      "name": "eventURI",
      "outputs": [
        {
          "internalType": "string",
          "name": "",
          "type": "string"
        }
      ],
      "stateMutability": "view",
      "type": "function"
    },
    {
      "inputs": [
        {
          "internalType": "uint256",
          "name": "tokenId",
          "type": "uint256"
        }
      ],
      "name": "getApproved",
      "outputs": [
        {
          "internalType": "address",
          "name": "",
          "type": "address"
        }
      ],
      "stateMutability": "view",
      "type": "function"
    },
    {
      "inputs": [
        {
          "internalType": "address",
          "name": "owner",
          "type": "address"
        },
        {
          "internalType": "address",
          "name": "operator",
          "type": "address"
        }
      ],
      "name": "isApprovedForAll",
      "outputs": [
        {
          "internalType": "bool",
          "name": "",
          "type": "bool"
        }
      ],
      "stateMutability": "view",
      "type": "function"
    },
    {
      "inputs": [],
      "name": "latestTokenID",
      "outputs": [
        {
          "internalType": "uint256",
          "name": "",
          "type": "uint256"
        }
      ],
      "stateMutability": "view",
      "type": "function"
    },
    {
      "inputs": [],
      "name": "name",
      "outputs": [
        {
          "internalType": "string",
          "name": "",
          "type": "string"
        }
      ],
      "stateMutability": "view",
      "type": "function"
    },
    {
      "inputs": [
        {
          "internalType": "uint256",
          "name": "tokenId",
          "type": "uint256"
        }
      ],
      "name": "ownerOf",
      "outputs": [
        {
          "internalType": "address",
          "name": "",
          "type": "address"
        }
      ],
      "stateMutability": "view",
      "type": "function"
    },
    {
      "inputs": [
        {
          "internalType": "address",
          "name": "from",
          "type": "address"
        },
        {
          "internalType": "address",
          "name": "to",
          "type": "address"
        },
        {
          "internalType": "uint256",
          "name": "tokenId",
          "type": "uint256"
        }
      ],
      "name": "safeTransferFrom",
      "outputs": [],
      "stateMutability": "nonpayable",
      "type": "function"
    },
    {
      "inputs": [
        {
          "internalType": "address",
          "name": "from",
          "type": "address"
        },
        {
          "internalType": "address",
          "name": "to",
          "type": "address"
        },
        {
          "internalType": "uint256",
          "name": "tokenId",
          "type": "uint256"
        },
        {
          "internalType": "bytes",
          "name": "_data",
          "type": "bytes"
        }
      ],
      "name": "safeTransferFrom",
      "outputs": [],
      "stateMutability": "nonpayable",
      "type": "function"
    },
    {
      "inputs": [
        {
          "internalType": "address",
          "name": "operator",
          "type": "address"
        },
        {
          "internalType": "bool",
          "name": "approved",
          "type": "bool"
        }
      ],
      "name": "setApprovalForAll",
      "outputs": [],
      "stateMutability": "nonpayable",
      "type": "function"
    },
    {
      "inputs": [
        {
          "internalType": "bytes4",
          "name": "interfaceId",
          "type": "bytes4"
        }
      ],
      "name": "supportsInterface",
      "outputs": [
        {
          "internalType": "bool",
          "name": "",
          "type": "bool"
        }
      ],
      "stateMutability": "view",
      "type": "function"
    },
    {
      "inputs": [],
      "name": "symbol",
      "outputs": [
        {
          "internalType": "string",
          "name": "",
          "type": "string"
        }
      ],
      "stateMutability": "view",
      "type": "function"
    },
    {
      "inputs": [
        {
          "internalType": "uint256",
          "name": "tokenId",
          "type": "uint256"
        }
      ],
      "name": "tokenURI",
      "outputs": [
        {
          "internalType": "string",
          "name": "",
          "type": "string"
        }
      ],
      "stateMutability": "view",
      "type": "function"
    },
    {
      "inputs": [
        {
          "internalType": "address",
          "name": "from",
          "type": "address"
        },
        {
          "internalType": "address",
          "name": "to",
          "type": "address"
        },
        {
          "internalType": "uint256",
          "name": "tokenId",
          "type": "uint256"
        }
      ],
      "name": "transferFrom",
      "outputs": [],
      "stateMutability": "nonpayable",
      "type": "function"
    }
  ],
  "bytecode": "0x60806040523480156200001157600080fd5b5060405162003154380380620031548339818101604052810190620000379190620001a3565b818181600090805190602001906200005192919062000075565b5080600190805190602001906200006a92919062000075565b5050505050620003ac565b8280546200008390620002bd565b90600052602060002090601f016020900481019282620000a75760008555620000f3565b82601f10620000c257805160ff1916838001178555620000f3565b82800160010185558215620000f3579182015b82811115620000f2578251825591602001919060010190620000d5565b5b50905062000102919062000106565b5090565b5b808211156200012157600081600090555060010162000107565b5090565b60006200013c620001368462000251565b62000228565b9050828152602081018484840111156200015b576200015a6200038c565b5b6200016884828562000287565b509392505050565b600082601f83011262000188576200018762000387565b5b81516200019a84826020860162000125565b91505092915050565b60008060408385031215620001bd57620001bc62000396565b5b600083015167ffffffffffffffff811115620001de57620001dd62000391565b5b620001ec8582860162000170565b925050602083015167ffffffffffffffff81111562000210576200020f62000391565b5b6200021e8582860162000170565b9150509250929050565b60006200023462000247565b9050620002428282620002f3565b919050565b6000604051905090565b600067ffffffffffffffff8211156200026f576200026e62000358565b5b6200027a826200039b565b9050602081019050919050565b60005b83811015620002a75780820151818401526020810190506200028a565b83811115620002b7576000848401525b50505050565b60006002820490506001821680620002d657607f821691505b60208210811415620002ed57620002ec62000329565b5b50919050565b620002fe826200039b565b810181811067ffffffffffffffff8211171562000320576200031f62000358565b5b80604052505050565b7f4e487b7100000000000000000000000000000000000000000000000000000000600052602260045260246000fd5b7f4e487b7100000000000000000000000000000000000000000000000000000000600052604160045260246000fd5b600080fd5b600080fd5b600080fd5b600080fd5b6000601f19601f8301169050919050565b612d9880620003bc6000396000f3fe608060405234801561001057600080fd5b506004361061012c5760003560e01c806370137593116100ad578063a22cb46511610071578063a22cb46514610367578063b88d4fde14610383578063c22aac201461039f578063c87b56dd146103cf578063e985e9c5146103ff5761012c565b8063701375931461028957806370a08231146102b957806395d89b41146102e95780639bc2bc7114610307578063a0fd0c6a146103375761012c565b806323b872dd116100f457806323b872dd146101e75780633074cb51146102035780633592dd801461022157806342842e0e1461023d5780636352211e146102595761012c565b806301ffc9a71461013157806306fdde0314610161578063081812fc1461017f578063095ea7b3146101af5780631cd043d6146101cb575b600080fd5b61014b60048036038101906101469190611e06565b61042f565b60405161015891906122e6565b60405180910390f35b610169610511565b6040516101769190612301565b60405180910390f35b61019960048036038101906101949190611ea9565b6105a3565b6040516101a6919061227f565b60405180910390f35b6101c960048036038101906101c49190611d43565b610628565b005b6101e560048036038101906101e09190611ed6565b610740565b005b61020160048036038101906101fc9190611c2d565b61076c565b005b61020b6107cc565b60405161021891906124e3565b60405180910390f35b61023b60048036038101906102369190611f32565b6107d6565b005b61025760048036038101906102529190611c2d565b61081a565b005b610273600480360381019061026e9190611ea9565b61083a565b604051610280919061227f565b60405180910390f35b6102a3600480360381019061029e9190611ed6565b6108ec565b6040516102b091906124e3565b60405180910390f35b6102d360048036038101906102ce9190611bc0565b610952565b6040516102e091906124e3565b60405180910390f35b6102f1610a0a565b6040516102fe9190612301565b60405180910390f35b610321600480360381019061031c9190611e60565b610a9c565b60405161032e91906124e3565b60405180910390f35b610351600480360381019061034c9190611ea9565b610acc565b60405161035e9190612301565b60405180910390f35b610381600480360381019061037c9190611d03565b610b71565b005b61039d60048036038101906103989190611c80565b610b87565b005b6103b960048036038101906103b49190611d83565b610be9565b6040516103c691906124e3565b60405180910390f35b6103e960048036038101906103e49190611ea9565b610c27565b6040516103f69190612301565b60405180910390f35b61041960048036038101906104149190611bed565b610cce565b60405161042691906122e6565b60405180910390f35b60007f80ac58cd000000000000000000000000000000000000000000000000000000007bffffffffffffffffffffffffffffffffffffffffffffffffffffffff1916827bffffffffffffffffffffffffffffffffffffffffffffffffffffffff191614806104fa57507f5b5e139f000000000000000000000000000000000000000000000000000000007bffffffffffffffffffffffffffffffffffffffffffffffffffffffff1916827bffffffffffffffffffffffffffffffffffffffffffffffffffffffff1916145b8061050a575061050982610d62565b5b9050919050565b60606000805461052090612739565b80601f016020809104026020016040519081016040528092919081815260200182805461054c90612739565b80156105995780601f1061056e57610100808354040283529160200191610599565b820191906000526020600020905b81548152906001019060200180831161057c57829003601f168201915b5050505050905090565b60006105ae82610dcc565b6105ed576040517f08c379a00000000000000000000000000000000000000000000000000000000081526004016105e490612463565b60405180910390fd5b6004600083815260200190815260200160002060009054906101000a900473ffffffffffffffffffffffffffffffffffffffff169050919050565b60006106338261083a565b90508073ffffffffffffffffffffffffffffffffffffffff168373ffffffffffffffffffffffffffffffffffffffff1614156106a4576040517f08c379a000000000000000000000000000000000000000000000000000000000815260040161069b906124a3565b60405180910390fd5b8073ffffffffffffffffffffffffffffffffffffffff166106c3610e38565b73ffffffffffffffffffffffffffffffffffffffff1614806106f257506106f1816106ec610e38565b610cce565b5b610731576040517f08c379a0000000000000000000000000000000000000000000000000000000008152600401610728906123e3565b60405180910390fd5b61073b8383610e40565b505050565b80600a6000848152602001908152602001600020908051906020019061076792919061191d565b505050565b61077d610777610e38565b82610ef9565b6107bc576040517f08c379a00000000000000000000000000000000000000000000000000000000081526004016107b3906124c3565b60405180910390fd5b6107c7838383610fd7565b505050565b6000600654905090565b60405180604001604052806107ea8461123e565b815260200182815250600c60008581526020019081526020016000209060026108149291906119a3565b50505050565b61083583838360405180602001604052806000815250610b87565b505050565b6000806002600084815260200190815260200160002060009054906101000a900473ffffffffffffffffffffffffffffffffffffffff169050600073ffffffffffffffffffffffffffffffffffffffff168173ffffffffffffffffffffffffffffffffffffffff1614156108e3576040517f08c379a00000000000000000000000000000000000000000000000000000000081526004016108da90612423565b60405180910390fd5b80915050919050565b600060405180604001604052806109028561123e565b815260200183815250600b6000600754815260200190815260200160002090600261092e9291906119a3565b50600760008154809291906109429061279c565b9190505550600754905092915050565b60008073ffffffffffffffffffffffffffffffffffffffff168273ffffffffffffffffffffffffffffffffffffffff1614156109c3576040517f08c379a00000000000000000000000000000000000000000000000000000000081526004016109ba90612403565b60405180910390fd5b600360008373ffffffffffffffffffffffffffffffffffffffff1673ffffffffffffffffffffffffffffffffffffffff168152602001908152602001600020549050919050565b606060018054610a1990612739565b80601f0160208091040260200160405190810160405280929190818152602001828054610a4590612739565b8015610a925780601f10610a6757610100808354040283529160200191610a92565b820191906000526020600020905b815481529060010190602001808311610a7557829003601f168201915b5050505050905090565b6000610aaa60085483610740565b60086000815480929190610abd9061279c565b91905055506008549050919050565b6060600a60008381526020019081526020016000208054610aec90612739565b80601f0160208091040260200160405190810160405280929190818152602001828054610b1890612739565b8015610b655780601f10610b3a57610100808354040283529160200191610b65565b820191906000526020600020905b815481529060010190602001808311610b4857829003601f168201915b50505050509050919050565b610b83610b7c610e38565b838361139f565b5050565b610b98610b92610e38565b83610ef9565b610bd7576040517f08c379a0000000000000000000000000000000000000000000000000000000008152600401610bce906124c3565b60405180910390fd5b610be38484848461150c565b50505050565b6000610bf785600654611568565b610c028385846107d6565b60066000815480929190610c159061279c565b91905055506006549050949350505050565b6060610c3282610dcc565b610c71576040517f08c379a0000000000000000000000000000000000000000000000000000000008152600401610c6890612483565b60405180910390fd5b6000610c7b611742565b90506000815111610c9b5760405180602001604052806000815250610cc6565b80610ca58461123e565b604051602001610cb692919061225b565b6040516020818303038152906040525b915050919050565b6000600560008473ffffffffffffffffffffffffffffffffffffffff1673ffffffffffffffffffffffffffffffffffffffff16815260200190815260200160002060008373ffffffffffffffffffffffffffffffffffffffff1673ffffffffffffffffffffffffffffffffffffffff16815260200190815260200160002060009054906101000a900460ff16905092915050565b60007f01ffc9a7000000000000000000000000000000000000000000000000000000007bffffffffffffffffffffffffffffffffffffffffffffffffffffffff1916827bffffffffffffffffffffffffffffffffffffffffffffffffffffffff1916149050919050565b60008073ffffffffffffffffffffffffffffffffffffffff166002600084815260200190815260200160002060009054906101000a900473ffffffffffffffffffffffffffffffffffffffff1673ffffffffffffffffffffffffffffffffffffffff1614159050919050565b600033905090565b816004600083815260200190815260200160002060006101000a81548173ffffffffffffffffffffffffffffffffffffffff021916908373ffffffffffffffffffffffffffffffffffffffff160217905550808273ffffffffffffffffffffffffffffffffffffffff16610eb38361083a565b73ffffffffffffffffffffffffffffffffffffffff167f8c5be1e5ebec7d5bd14f71427d1e84f3dd0314c0f7b2291e5b200ac8c7c3b92560405160405180910390a45050565b6000610f0482610dcc565b610f43576040517f08c379a0000000000000000000000000000000000000000000000000000000008152600401610f3a906123c3565b60405180910390fd5b6000610f4e8361083a565b90508073ffffffffffffffffffffffffffffffffffffffff168473ffffffffffffffffffffffffffffffffffffffff161480610fbd57508373ffffffffffffffffffffffffffffffffffffffff16610fa5846105a3565b73ffffffffffffffffffffffffffffffffffffffff16145b80610fce5750610fcd8185610cce565b5b91505092915050565b8273ffffffffffffffffffffffffffffffffffffffff16610ff78261083a565b73ffffffffffffffffffffffffffffffffffffffff161461104d576040517f08c379a000000000000000000000000000000000000000000000000000000000815260040161104490612343565b60405180910390fd5b600073ffffffffffffffffffffffffffffffffffffffff168273ffffffffffffffffffffffffffffffffffffffff1614156110bd576040517f08c379a00000000000000000000000000000000000000000000000000000000081526004016110b490612383565b60405180910390fd5b6110c8838383611759565b6110d3600082610e40565b6001600360008573ffffffffffffffffffffffffffffffffffffffff1673ffffffffffffffffffffffffffffffffffffffff1681526020019081526020016000206000828254611123919061264f565b925050819055506001600360008473ffffffffffffffffffffffffffffffffffffffff1673ffffffffffffffffffffffffffffffffffffffff168152602001908152602001600020600082825461117a91906125c8565b92505081905550816002600083815260200190815260200160002060006101000a81548173ffffffffffffffffffffffffffffffffffffffff021916908373ffffffffffffffffffffffffffffffffffffffff160217905550808273ffffffffffffffffffffffffffffffffffffffff168473ffffffffffffffffffffffffffffffffffffffff167fddf252ad1be2c89b69c2b068fc378daa952ba7f163c4a11628f55a4df523b3ef60405160405180910390a461123983838361175e565b505050565b60606000821415611286576040518060400160405280600181526020017f3000000000000000000000000000000000000000000000000000000000000000815250905061139a565b600082905060005b600082146112b85780806112a19061279c565b915050600a826112b1919061261e565b915061128e565b60008167ffffffffffffffff8111156112d4576112d36128d2565b5b6040519080825280601f01601f1916602001820160405280156113065781602001600182028036833780820191505090505b5090505b600085146113935760018261131f919061264f565b9150600a8561132e91906127e5565b603061133a91906125c8565b60f81b8183815181106113505761134f6128a3565b5b60200101907effffffffffffffffffffffffffffffffffffffffffffffffffffffffffffff1916908160001a905350600a8561138c919061261e565b945061130a565b8093505050505b919050565b8173ffffffffffffffffffffffffffffffffffffffff168373ffffffffffffffffffffffffffffffffffffffff16141561140e576040517f08c379a0000000000000000000000000000000000000000000000000000000008152600401611405906123a3565b60405180910390fd5b80600560008573ffffffffffffffffffffffffffffffffffffffff1673ffffffffffffffffffffffffffffffffffffffff16815260200190815260200160002060008473ffffffffffffffffffffffffffffffffffffffff1673ffffffffffffffffffffffffffffffffffffffff16815260200190815260200160002060006101000a81548160ff0219169083151502179055508173ffffffffffffffffffffffffffffffffffffffff168373ffffffffffffffffffffffffffffffffffffffff167f17307eab39ab6107e8899845ad3d59bd9653f200f220920489ca2b5937696c31836040516114ff91906122e6565b60405180910390a3505050565b611517848484610fd7565b61152384848484611763565b611562576040517f08c379a000000000000000000000000000000000000000000000000000000000815260040161155990612323565b60405180910390fd5b50505050565b600073ffffffffffffffffffffffffffffffffffffffff168273ffffffffffffffffffffffffffffffffffffffff1614156115d8576040517f08c379a00000000000000000000000000000000000000000000000000000000081526004016115cf90612443565b60405180910390fd5b6115e181610dcc565b15611621576040517f08c379a000000000000000000000000000000000000000000000000000000000815260040161161890612363565b60405180910390fd5b61162d60008383611759565b6001600360008473ffffffffffffffffffffffffffffffffffffffff1673ffffffffffffffffffffffffffffffffffffffff168152602001908152602001600020600082825461167d91906125c8565b92505081905550816002600083815260200190815260200160002060006101000a81548173ffffffffffffffffffffffffffffffffffffffff021916908373ffffffffffffffffffffffffffffffffffffffff160217905550808273ffffffffffffffffffffffffffffffffffffffff16600073ffffffffffffffffffffffffffffffffffffffff167fddf252ad1be2c89b69c2b068fc378daa952ba7f163c4a11628f55a4df523b3ef60405160405180910390a461173e6000838361175e565b5050565b606060405180602001604052806000815250905090565b505050565b505050565b60006117848473ffffffffffffffffffffffffffffffffffffffff166118fa565b156118ed578373ffffffffffffffffffffffffffffffffffffffff1663150b7a026117ad610e38565b8786866040518563ffffffff1660e01b81526004016117cf949392919061229a565b602060405180830381600087803b1580156117e957600080fd5b505af192505050801561181a57506040513d601f19601f820116820180604052508101906118179190611e33565b60015b61189d573d806000811461184a576040519150601f19603f3d011682016040523d82523d6000602084013e61184f565b606091505b50600081511415611895576040517f08c379a000000000000000000000000000000000000000000000000000000000815260040161188c90612323565b60405180910390fd5b805181602001fd5b63150b7a0260e01b7bffffffffffffffffffffffffffffffffffffffffffffffffffffffff1916817bffffffffffffffffffffffffffffffffffffffffffffffffffffffff1916149150506118f2565b600190505b949350505050565b6000808273ffffffffffffffffffffffffffffffffffffffff163b119050919050565b82805461192990612739565b90600052602060002090601f01602090048101928261194b5760008555611992565b82601f1061196457805160ff1916838001178555611992565b82800160010185558215611992579182015b82811115611991578251825591602001919060010190611976565b5b50905061199f91906119f6565b5090565b82600281019282156119e5579160200282015b828111156119e45782518290805190602001906119d492919061191d565b50916020019190600101906119b6565b5b5090506119f29190611a13565b5090565b5b80821115611a0f5760008160009055506001016119f7565b5090565b5b80821115611a335760008181611a2a9190611a37565b50600101611a14565b5090565b508054611a4390612739565b6000825580601f10611a555750611a74565b601f016020900490600052602060002090810190611a7391906119f6565b5b50565b6000611a8a611a8584612523565b6124fe565b905082815260208101848484011115611aa657611aa5612906565b5b611ab18482856126f7565b509392505050565b6000611acc611ac784612554565b6124fe565b905082815260208101848484011115611ae857611ae7612906565b5b611af38482856126f7565b509392505050565b600081359050611b0a81612d06565b92915050565b600081359050611b1f81612d1d565b92915050565b600081359050611b3481612d34565b92915050565b600081519050611b4981612d34565b92915050565b600082601f830112611b6457611b63612901565b5b8135611b74848260208601611a77565b91505092915050565b600082601f830112611b9257611b91612901565b5b8135611ba2848260208601611ab9565b91505092915050565b600081359050611bba81612d4b565b92915050565b600060208284031215611bd657611bd5612910565b5b6000611be484828501611afb565b91505092915050565b60008060408385031215611c0457611c03612910565b5b6000611c1285828601611afb565b9250506020611c2385828601611afb565b9150509250929050565b600080600060608486031215611c4657611c45612910565b5b6000611c5486828701611afb565b9350506020611c6586828701611afb565b9250506040611c7686828701611bab565b9150509250925092565b60008060008060808587031215611c9a57611c99612910565b5b6000611ca887828801611afb565b9450506020611cb987828801611afb565b9350506040611cca87828801611bab565b925050606085013567ffffffffffffffff811115611ceb57611cea61290b565b5b611cf787828801611b4f565b91505092959194509250565b60008060408385031215611d1a57611d19612910565b5b6000611d2885828601611afb565b9250506020611d3985828601611b10565b9150509250929050565b60008060408385031215611d5a57611d59612910565b5b6000611d6885828601611afb565b9250506020611d7985828601611bab565b9150509250929050565b60008060008060808587031215611d9d57611d9c612910565b5b6000611dab87828801611afb565b9450506020611dbc87828801611bab565b9350506040611dcd87828801611bab565b925050606085013567ffffffffffffffff811115611dee57611ded61290b565b5b611dfa87828801611b7d565b91505092959194509250565b600060208284031215611e1c57611e1b612910565b5b6000611e2a84828501611b25565b91505092915050565b600060208284031215611e4957611e48612910565b5b6000611e5784828501611b3a565b91505092915050565b600060208284031215611e7657611e75612910565b5b600082013567ffffffffffffffff811115611e9457611e9361290b565b5b611ea084828501611b7d565b91505092915050565b600060208284031215611ebf57611ebe612910565b5b6000611ecd84828501611bab565b91505092915050565b60008060408385031215611eed57611eec612910565b5b6000611efb85828601611bab565b925050602083013567ffffffffffffffff811115611f1c57611f1b61290b565b5b611f2885828601611b7d565b9150509250929050565b600080600060608486031215611f4b57611f4a612910565b5b6000611f5986828701611bab565b9350506020611f6a86828701611bab565b925050604084013567ffffffffffffffff811115611f8b57611f8a61290b565b5b611f9786828701611b7d565b9150509250925092565b611faa81612683565b82525050565b611fb981612695565b82525050565b6000611fca82612585565b611fd4818561259b565b9350611fe4818560208601612706565b611fed81612915565b840191505092915050565b600061200382612590565b61200d81856125ac565b935061201d818560208601612706565b61202681612915565b840191505092915050565b600061203c82612590565b61204681856125bd565b9350612056818560208601612706565b80840191505092915050565b600061206f6032836125ac565b915061207a82612926565b604082019050919050565b60006120926025836125ac565b915061209d82612975565b604082019050919050565b60006120b5601c836125ac565b91506120c0826129c4565b602082019050919050565b60006120d86024836125ac565b91506120e3826129ed565b604082019050919050565b60006120fb6019836125ac565b915061210682612a3c565b602082019050919050565b600061211e602c836125ac565b915061212982612a65565b604082019050919050565b60006121416038836125ac565b915061214c82612ab4565b604082019050919050565b6000612164602a836125ac565b915061216f82612b03565b604082019050919050565b60006121876029836125ac565b915061219282612b52565b604082019050919050565b60006121aa6020836125ac565b91506121b582612ba1565b602082019050919050565b60006121cd602c836125ac565b91506121d882612bca565b604082019050919050565b60006121f0602f836125ac565b91506121fb82612c19565b604082019050919050565b60006122136021836125ac565b915061221e82612c68565b604082019050919050565b60006122366031836125ac565b915061224182612cb7565b604082019050919050565b612255816126ed565b82525050565b60006122678285612031565b91506122738284612031565b91508190509392505050565b60006020820190506122946000830184611fa1565b92915050565b60006080820190506122af6000830187611fa1565b6122bc6020830186611fa1565b6122c9604083018561224c565b81810360608301526122db8184611fbf565b905095945050505050565b60006020820190506122fb6000830184611fb0565b92915050565b6000602082019050818103600083015261231b8184611ff8565b905092915050565b6000602082019050818103600083015261233c81612062565b9050919050565b6000602082019050818103600083015261235c81612085565b9050919050565b6000602082019050818103600083015261237c816120a8565b9050919050565b6000602082019050818103600083015261239c816120cb565b9050919050565b600060208201905081810360008301526123bc816120ee565b9050919050565b600060208201905081810360008301526123dc81612111565b9050919050565b600060208201905081810360008301526123fc81612134565b9050919050565b6000602082019050818103600083015261241c81612157565b9050919050565b6000602082019050818103600083015261243c8161217a565b9050919050565b6000602082019050818103600083015261245c8161219d565b9050919050565b6000602082019050818103600083015261247c816121c0565b9050919050565b6000602082019050818103600083015261249c816121e3565b9050919050565b600060208201905081810360008301526124bc81612206565b9050919050565b600060208201905081810360008301526124dc81612229565b9050919050565b60006020820190506124f8600083018461224c565b92915050565b6000612508612519565b9050612514828261276b565b919050565b6000604051905090565b600067ffffffffffffffff82111561253e5761253d6128d2565b5b61254782612915565b9050602081019050919050565b600067ffffffffffffffff82111561256f5761256e6128d2565b5b61257882612915565b9050602081019050919050565b600081519050919050565b600081519050919050565b600082825260208201905092915050565b600082825260208201905092915050565b600081905092915050565b60006125d3826126ed565b91506125de836126ed565b9250827fffffffffffffffffffffffffffffffffffffffffffffffffffffffffffffffff0382111561261357612612612816565b5b828201905092915050565b6000612629826126ed565b9150612634836126ed565b92508261264457612643612845565b5b828204905092915050565b600061265a826126ed565b9150612665836126ed565b92508282101561267857612677612816565b5b828203905092915050565b600061268e826126cd565b9050919050565b60008115159050919050565b60007fffffffff0000000000000000000000000000000000000000000000000000000082169050919050565b600073ffffffffffffffffffffffffffffffffffffffff82169050919050565b6000819050919050565b82818337600083830152505050565b60005b83811015612724578082015181840152602081019050612709565b83811115612733576000848401525b50505050565b6000600282049050600182168061275157607f821691505b6020821081141561276557612764612874565b5b50919050565b61277482612915565b810181811067ffffffffffffffff82111715612793576127926128d2565b5b80604052505050565b60006127a7826126ed565b91507fffffffffffffffffffffffffffffffffffffffffffffffffffffffffffffffff8214156127da576127d9612816565b5b600182019050919050565b60006127f0826126ed565b91506127fb836126ed565b92508261280b5761280a612845565b5b828206905092915050565b7f4e487b7100000000000000000000000000000000000000000000000000000000600052601160045260246000fd5b7f4e487b7100000000000000000000000000000000000000000000000000000000600052601260045260246000fd5b7f4e487b7100000000000000000000000000000000000000000000000000000000600052602260045260246000fd5b7f4e487b7100000000000000000000000000000000000000000000000000000000600052603260045260246000fd5b7f4e487b7100000000000000000000000000000000000000000000000000000000600052604160045260246000fd5b600080fd5b600080fd5b600080fd5b600080fd5b6000601f19601f8301169050919050565b7f4552433732313a207472616e7366657220746f206e6f6e20455243373231526560008201527f63656976657220696d706c656d656e7465720000000000000000000000000000602082015250565b7f4552433732313a207472616e736665722066726f6d20696e636f72726563742060008201527f6f776e6572000000000000000000000000000000000000000000000000000000602082015250565b7f4552433732313a20746f6b656e20616c7265616479206d696e74656400000000600082015250565b7f4552433732313a207472616e7366657220746f20746865207a65726f2061646460008201527f7265737300000000000000000000000000000000000000000000000000000000602082015250565b7f4552433732313a20617070726f766520746f2063616c6c657200000000000000600082015250565b7f4552433732313a206f70657261746f7220717565727920666f72206e6f6e657860008201527f697374656e7420746f6b656e0000000000000000000000000000000000000000602082015250565b7f4552433732313a20617070726f76652063616c6c6572206973206e6f74206f7760008201527f6e6572206e6f7220617070726f76656420666f7220616c6c0000000000000000602082015250565b7f4552433732313a2062616c616e636520717565727920666f7220746865207a6560008201527f726f206164647265737300000000000000000000000000000000000000000000602082015250565b7f4552433732313a206f776e657220717565727920666f72206e6f6e657869737460008201527f656e7420746f6b656e0000000000000000000000000000000000000000000000602082015250565b7f4552433732313a206d696e7420746f20746865207a65726f2061646472657373600082015250565b7f4552433732313a20617070726f76656420717565727920666f72206e6f6e657860008201527f697374656e7420746f6b656e0000000000000000000000000000000000000000602082015250565b7f4552433732314d657461646174613a2055524920717565727920666f72206e6f60008201527f6e6578697374656e7420746f6b656e0000000000000000000000000000000000602082015250565b7f4552433732313a20617070726f76616c20746f2063757272656e74206f776e6560008201527f7200000000000000000000000000000000000000000000000000000000000000602082015250565b7f4552433732313a207472616e736665722063616c6c6572206973206e6f74206f60008201527f776e6572206e6f7220617070726f766564000000000000000000000000000000602082015250565b612d0f81612683565b8114612d1a57600080fd5b50565b612d2681612695565b8114612d3157600080fd5b50565b612d3d816126a1565b8114612d4857600080fd5b50565b612d54816126ed565b8114612d5f57600080fd5b5056fea264697066735822122078a6e45ebf9ee8e1e80686b6e87721fc5e126001a248ebc663a31d97d08669b564736f6c63430008060033",
  "linkReferences": {},
  "deployedLinkReferences": {}
}